:020000040800F2
:10000000F04400205D020008931A0008EF16000873
:10001000911A0008B9030008DD2200080000000062
:100020000000000000000000000000009D0100082A
:10003000BB03000800000000F9010008D91D0008FA
:1000400077020008770200087702000877020008AC
:10005000770200087702000877020008770200089C
:10006000770200087702000877020008770200088C
:10007000770200087702000877020008770200087C
:10008000770200087702000877020008770200086C
:10009000770200087702000877020008770200085C
:1000A000770200087702000877020008770200084C
:1000B000770200087702000877020008770200083C
:1000C000770200087702000877020008770200082C
:1000D000770200087702000877020008770200081C
:1000E000770200087702000877020008770200080C
:1000F00077020008770200087702000877020008FC
:1001000077020008770200087702000877020008EB
:1001100077020008770200087702000877020008DB
:1001200077020008770200087702000877020008CB
:1001300077020008770200087702000877020008BB
:1001400077020008770200087702000877020008AB
:10015000770200087702000877020008770200089B
:10016000770200087702000877020008770200088B
:1001700077020008770200087702000800000000FC
:100180007702000877020008DFF80CD000F002F9CF
:1001900000480047A9260008F04400202C4B1968AD
:1001A0000868B0E8F04F80F30988BFF36F8F4FF015
:1001B000000080F3118870470000000008480068C4
:1001C000006880F308884FF0000080F3148862B65E
:1001D00061B6BFF34F8FBFF36F8F00DF00BF00BF6B
:1001E00008ED00E0DFF80C00016841F470010160E7
:1001F000704700BF88ED00E0EFF30980BFF36F8F19
:10020000134B1A681EF0100F08BF20ED108A20E96A
:10021000F04F106009B44FF0500080F31188BFF325
:100220004F8FBFF36F8F03F04FF94FF0000080F353
:10023000118809BC19680868B0E8F04F1EF0100F6B
:1002400008BFB0EC108A80F30988BFF36F8F704746
:1002500054000020EFF305807047000006488047F7
:1002600006480047FEE7FEE7FEE7FEE7FEE7FEE79B
:10027000FEE7FEE7FEE7FEE7611E000889010008D1
:100280002DE9F05F0546002092469B4688460646CB
:10029000814640241BE0284641464746224600F05E
:1002A00069F853465A46C01A914110D31146184670
:1002B000224600F050F82D1A67EB01084F462246FF
:1002C0000120002100F047F817EB00094E41201EE5
:1002D000A4F10104DFDC484631462A464346BDE826
:1002E000F09F40EA01039B0703D009E008C9121FF1
:1002F00008C0042AFAD203E011F8013B00F8013BE0
:10030000521EF9D27047D2B201E000F8012B491E0B
:10031000FBD270470022F6E710B513460A460446A2
:100320001946FFF7F0FF204610BD30B50B460146D9
:1003300000202022012409E021FA02F59D4205D384
:1003400003FA02F5491B04FA02F52844151EA2F12E
:100350000102F1DC30BD202A04DB203A00FA02F170
:10036000002070479140C2F1200320FA03F31943A3
:1003700090407047202A04DB203A21FA02F0002145
:10038000704721FA02F3D040C2F1200291400843A5
:1003900019467047064C074D06E0E06840F001033F
:1003A00094E8070098471034AC42F6D3FFF7F0FE0C
:1003B0005C4000087C400008FEE7704770B50446CA
:1003C00000F0F0F80546601C02D0044800780444B0
:1003D00000F0E8F8401BA042FAD370BD44000020B2
:1003E0002DE9F84F00224FF0010803254FF00F0EC2
:1003F0000B6808FA02F42340A3426ED14E68012E26
:1004000005D0022E03D0112E01D0122E12D18668F3
:100410004FEA420C05FA0CF7BE43CF6807FA0CF717
:10042000374387604668A6430C79C4F300149440B0
:1004300034434460C668570005FA07FC8C6826EA16
:100440000C06BC403443C4604C68022C01D0122C12
:1004500013D1D40800EB8404A346D4F820905407A9
:100460004FEAD46A0EFA0AF629EA06090E6906FA74
:100470000AF646EA0906CBF8206006680C7926EAF7
:100480000C0604F00304BC40344304604C68E400F0
:1004900065D5364C266846F480462660246822F0EE
:1004A000030604F480440094314C3444A446D4F848
:1004B00008489607370F0EFA07F6B4432D4EB042A0
:1004C00001D1002624E02C4EB04201D101261FE0CC
:1004D0002A4EB04202D102261AE040E0284EB04235
:1004E00001D1032614E0274EB04201D104260FE0CB
:1004F000254EB04201D105260AE0244EB04201D17A
:10050000062605E0224EB04201D1072600E008266B
:10051000BE402643CCF808681E4E34684F689C43A2
:10052000FF0300D51C4334601A4C241D26684F6815
:100530009E43BF0300D51E432660164E083634681E
:100540004F689C43FF0200D51C433460114E0C36AB
:1005500034684F689C43BF0200D51C433460521C72
:10056000102AFFF445AFBDE8F88F00004438024080
:100570000030014000000240000402400008024038
:10058000000C02400010024000140240001802401B
:10059000001C0240003C01400AB18161704709041F
:1005A000FBE700000148806870470000440000201D
:1005B000024881680278114481607047440000203D
:1005C0000B4810B5016841F400710160016841F405
:1005D00080610160016841F480710160032000F0D6
:1005E00065F80F2000F006F800F024F8002010BD98
:1005F000003C024070B50D4D04464FF47A712878E6
:10060000B1FBF0F00A490968B1FBF0F000F0B5FD6C
:1006100048B9102C07D200222146501E00F026F8BF
:1006200000206C6070BD012070BD000044000020FF
:10063000500000200C4882B0016841F48041016004
:10064000006800F4804000900748001F016841F0F6
:10065000805101600068002200F0805000900F215E
:10066000901E02B000F002B844380240F0B40E4BC5
:100670001B680C46C3F30223C3F10705042D00D900
:100680000425191D072901D2002300E0DB1E0126E5
:1006900006FA05F1491E214099409E40761E1640FB
:1006A0003143F0BC01F02CBE0CED00E0064900F037
:1006B000070208684FF6FF03184040EA0220034A89
:1006C00010430860704700000CED00E00000FA05E0
:1006D0002DE9F0470E46050065D0DFF81481D8F803
:1006E0000000F7B200F00F00B04207D288F80070A7
:1006F000D8F8000000F00F00B04254D128683D4CFB
:10070000810712D5400703D5206840F4E0502060EF
:100710002878000703D5206840F4604020602068F6
:10072000A96820F0F000084320602878C0072DD089
:10073000304968680839012812D0022813D00328EC
:1007400011D00968890700292DDA216821F00301F9
:1007500001432160FFF726FF814641F2883A0EE00F
:1007600009688903EFE709688901ECE7FFF71AFFD9
:10077000A0EB0901514502D90320BDE8F0872068AC
:10078000696800F00C00B0EB810FEFD1D8F80010D1
:10079000404601F00F01B14207D90770006800F030
:1007A0000F00B04201D00120E7E72878400705D5C7
:1007B0002068E96820F4E0500843206028780007AA
:1007C00006D52068296920F4604040EAC100206015
:1007D00000F038F82168084AC1F30311515CC840A1
:1007E0000649086006480068FFF704FF0020C4E7D8
:1007F000003C02400838024024400008500000201D
:10080000480000200448054900680968044AC1F30B
:100810008221515CC84070475000002008380240D7
:10082000344000080448054900680968044AC1F3D7
:100830004231515CC84070475000002008380240E7
:1008400034400008154810B5006810F00C02144838
:1008500013D01449042A0FD0082A0ED10F4C241F9C
:100860002268236802F03F025B0207D52068C0F3CC
:100870008810A0FB010106E0084610BD2168C1F305
:100880008811A1FB00010023FFF7FAFC2168C1F3E6
:100890000141491C4900B0FBF1F010BD083802408D
:1008A0000024F40040787D012DE9F84F04006ED05B
:1008B0002078DFF83C93C007A9F104054AD009F17C
:1008C00004000168C1F38101012908D00068C0F368
:1008D000810002280AD1D9F80000400206D5286814
:1008E000800337D560680028E1D033E06068B0F558
:1008F000803F10D0B0F5A02F286810D020F48030B1
:100900002860286820F4802028606068A8B1FFF77C
:1009100049FE06460DE0286840F48030F4E740F4D4
:1009200080202860F7E700BFFFF73CFE801B6428AB
:1009300073D828688003F7D50CE0FFF733FE06462E
:1009400005E000BFFFF72EFE801B6428F0D8286862
:100950008003F7D42078DFF89C8280074FF0000AEC
:100960003ED5A348001D016811F00C0F08D00068A7
:10097000C0F3810002280BD1D9F80000400207D44F
:100980002868800716D5E068012800D112E02BE125
:10099000E068B8B10120C8F80000FFF703FE064682
:1009A00005E000BFFFF7FEFD801B0228C0D82868C5
:1009B0008007F7D52868216920F0F80040EAC100D7
:1009C00028600DE0C8F800A0FFF7ECFD064604E043
:1009D000FFF7E8FD801B02281FD828688007F7D49E
:1009E0002078000722D5824E83486169703671B144
:1009F00001210160FFF7D6FD074604E0FFF7D2FDB5
:100A0000C01B022809D830688007F7D50EE0C0F86F
:100A100000A0FFF7C7FD074605E082E0FFF7C2FD33
:100A2000C01B02287DD830688007F7D420784007A3
:100A300068D5DFF8BCB100270BF13C0BDBF80000F8
:100A4000C0000BD4DBF8001041F08051CBF800104F
:100A5000DBF80000012700F080500090674E3068FE
:100A6000C00510D4306840F480703060FFF79AFD04
:100A7000009005E0FFF796FD0099401A022850D833
:100A80003068C005F6D55A4EA0686C3601280FD0E4
:100A90000528306810D020F001003060306820F068
:100AA00004003060A068B8B1FFF77CFD00900FE053
:100AB000306840F00100F4E740F004003060F7E7F0
:100AC000FFF770FD0099411A41F28830814266D8E3
:100AD00030688007F4D50EE0FFF764FD009007E072
:100AE000FFF760FD0099411A41F28830814256D8E3
:100AF00030688007F4D42FB1DBF8001021F080516A
:100B0000CBF80010A069C8B33949091D0968C1F3C1
:100B1000810102294AD00228504607D0C8F8600057
:100B200000E03CE0FFF73EFD04463BE04746C8F8E6
:100B30006000FFF737FD064605E000BFFFF732FD16
:100B4000801B02282BD828688001F7D4D4E907013C
:100B50000843A16A2A4A490802EB0141626A41EA54
:100B60008211084394F82C1040EA0161C9F8001082
:100B700001203866FFF716FD044606E036E000BFA8
:100B8000FFF710FD001B022809D828688001F7D55F
:100B90002CE000BFFFF706FD001B022802D903204E
:100BA000BDE8F88F28688001F4D41FE00128F7D051
:100BB000D9F80000E26900F48001914214D1226A60
:100BC00000F03F0191420FD147F6C071626A0140C7
:100BD000914209D1A26A00F44031914204D1E16A04
:100BE00000F07060884201D00120D9E70020D7E7EB
:100BF0000438024000004742800E47420070004027
:100C00000000FFFF70B5040005D00025A56294F830
:100C1000510010B106E0012070BD84F8505020460C
:100C200000F030F8022084F851002068016821F0BB
:100C300040010160D4E901010843D4E903121143E2
:100C4000084361690843218B01F400710843E1699D
:100C50000843216A0843A16A084321680860A06923
:100C6000042101EA1040616A084321684860206855
:100C7000C16921F40061C1616565012084F85100FA
:100C8000002070BD10B586B0044614216846FFF7F9
:100C900041FB13492068884220D112480021026894
:100CA00042F480520260006800F4805005900D48C4
:100CB0001438026842F001020260006800F001008E
:100CC0000590E02000900220CDE90101032003906F
:100CD0000520049069460448FFF782FB06B010BD6A
:100CE0000030014044380240000002402DE9F84F36
:100CF000044640680025984616460F464FF0040B00
:100D0000B0F5827F01D1A06888B194F85000012825
:100D100018D0012084F85000FFF744FC814694F875
:100D200051004FF0000A01280ED002257DE084F822
:100D300051B013460A462046CDF8008000F02CF949
:100D4000BDE8F88F0220FBE7002F6DD0002E6BD09E
:100D500084F851B0C4F854A0A763A687E687C4F806
:100D600030A0A4F834A0A4F836A0C4F840A0C4F879
:100D700044A0A068B0F5004F04D12068016821F4B8
:100D80008041016020680168490603D4016841F090
:100D900040010160E068D8B139E020688168C90786
:100DA00009D0007BA16B0870A06B401CA063E08F92
:100DB000401EE0870CE0FFF7F5FBA0EB0901414581
:100DC00003D3B8F1FF3F03D036E0B8F1000F33D0C2
:100DD000E08F0028E1D11DE020688168C90709D0B3
:100DE000C068A16B0880A06B801CA063E08F401ED0
:100DF000E0870CE0FFF7D6FBA0EB0901414503D3E8
:100E0000B8F1FF3F03D017E0B8F1000F14D0E08F26
:100E10000028E1D14A464146204600F03BFE08B199
:100E200020206065606D00B10125012084F851002B
:100E300084F850A0284683E70325F6E72DE9F84F0C
:100E4000044690F8500000271D46164689460128A2
:100E50000DD04FF0010B84F850B0FFF7A3FB804694
:100E600094F85100BA46012804D002278EE00220EF
:100E7000BDE8F88FB9F1000F7DD0002E7BD00320A4
:100E800084F85100C4F854A0C4F83090A686E686D1
:100E9000C4F838A0A4F83CA0A4F83EA0C4F844A02C
:100EA000C4F840A0A068B0F5004F04D120680168E4
:100EB00041F48041016020680168490603D401685B
:100EC00041F040010160E068B0F5006F606803D058
:100ED00030B3012E24D040E008B1012E1CD1206B8C
:100EE00021680088C86006E020688168890709D504
:100EF000216B0988C160206B801C2063E08E401E3E
:100F0000E08609E0FFF74EFBA0EB0800A84202D301
:100F1000681C01D031E07DB3E08E0028E4D11FE0F1
:100F2000206B21680078087306E0206881688907D3
:100F300009D5216B09780173206B401C2063E08E7A
:100F4000401EE08609E0FFF72DFBA0EB0800A84259
:100F500002D3681C01D010E075B1E08E0028E4D106
:100F600042462946204600F0C3FD08B120206065B6
:100F7000A06820B107E008E0FFE7032706E020684B
:100F8000C16880680090606D00B1012784F851B09D
:100F900084F850A038466BE72DE9F84F044690F8E6
:100FA000500000270A9E1D4692468B464FF00109CD
:100FB00001280ED0012084F85000FFF7F3FA804694
:100FC00094F85100616801280CD0B1F5827F07D1F7
:100FD00002E00220BDE8F88FA16809B9042801D019
:100FE0000227C2E0BBF1000F27D0BAF1000F24D0D6
:100FF0001DB394F85100042802D0052084F8510054
:1010000000206065C4F838A0E587A587C4F830B033
:10101000E586A5862064606420680168490603D4DB
:10102000016841F040010160E068B0F5006F606860
:1010300005D0E8B3012D46D07FE0012795E008B147
:10104000012D39D1206B21680088C860206B801C7D
:101050002063E08E401EE0862EE0206881688907CC
:101060000FD5E18E69B1B9F1010F0AD1216B098861
:10107000C160206B801C2063E08E401EE0864FF034
:10108000000920688168C9070CD0E18F51B1C068A0
:10109000A16B0880A06B801CA063E08F401EE087DE
:1010A0004FF00109FFF77EFAA0EB0800B04200E024
:1010B00009E001D3701C50D1E08E0028CDD1E08F23
:1010C0000028CAD13FE0206B216800780873206BAC
:1010D000401C2063E08E401EE0862EE02068816880
:1010E00089070FD5E18E69B1B9F1010F0AD1216BE2
:1010F00009780173206B401C2063E08E401EE0865F
:101100004FF0000920688168C9070CD0E18F51B108
:10111000C068A16B0870A06B401CA063E08F401EEC
:10112000E0874FF00109FFF73DFAA0EB0800B0425D
:1011300002D3701C01D010E07EB1E08E0028CDD12A
:10114000E08F0028CAD142463146204600F0D0FC4C
:1011500028B101272020606507E0032705E0A0688B
:1011600018B92068C16880680090012084F8510097
:10117000002084F8500038462CE710B5401EB0F12E
:10118000807F01D3012010BD4FF0E02460610F216A
:10119000601701F0B5F80020A06107202061002051
:1011A00010BD000070B590F83C20012A32D0012417
:1011B00080F83C40022280F83D2003685A689D6810
:1011C00022F070060A6832435A60134B02689A4252
:1011D00014D0B2F1804F11D0104B9A420ED0104B68
:1011E0009A420BD00F4B9A4208D00F4B9A4205D02F
:1011F0000E4B9A4202D00E4B9A4204D1496825F018
:1012000080031943916080F83D40002180F83C1034
:10121000084670BD022070BD00000140000400407F
:1012200000080040000C0040000401400040014064
:101230000018004010B5040003D094F83D0010B130
:1012400007E0012010BD002084F83C00204600F09B
:101250000DF8022084F83D00211D206800F00EFEEC
:10126000012084F83D00002010BD000008B5006892
:101270000649884208D10648016841F0040101602E
:10128000006800F00400009008BD00000008004065
:101290004038024070B5044690F83C00012817D051
:1012A000012584F83C50022084F83D0020688268C3
:1012B00022F0770222F47F4282600868502830D002
:1012C0000DDC20284DD005DC98B310283BD148E038
:1012D000022070BD302844D0402834D139E0602845
:1012E00028D0702806D0B0F5805F2CD0B0F5005F14
:1012F00029D10AE0CB68D1E90121206800F02FFE56
:101300002068816841F0770109E0CB68D1E90121CB
:10131000206800F024FE2068816841F480418160EB
:1013200011E0CA684968206800F0EEFE502120688C
:1013300007E016E0CA684968206800F0F6FE602100
:10134000206800F016FE84F83D50002084F83C0030
:1013500070BDCA684968206800F0D6FE4021206848
:10136000EFE7226801461046EBE7000010B586B0B3
:10137000044614216846FEF7CDFF0E4920688842D6
:1013800015D10D480021026842F008020260006891
:1013900000F0080005904FF4E04000900220CDE9F5
:1013A0000101CDE9031069460448FFF719F806B0BA
:1013B00010BD00000008004030380240000C024020
:1013C00070B5044690F83C000D4601280DD001266A
:1013D00084F83C60022084F83D0042B1042A18D011
:1013E000082A2AD00C2A4DD139E0022070BD20688D
:1013F00000F0C8FD2068816941F008018161206822
:10140000816921F004018161206881692A691143A1
:1014100011E0206800F0E6FD2068816941F4006178
:1014200081612068816921F480618161206881691E
:101430002A6941EA0221816124E0206800F008FE67
:101440002068C16941F00801C1612068C16921F0CB
:101450000401C1612068C1692A69114311E0206853
:1014600000F02AFE2068C16941F40061C161206872
:10147000C16921F48061C1612068C1692A6941EABA
:101480000221C16184F83D60002084F83C0070BDF9
:1014900010B5040003D094F83D0010B107E001201E
:1014A00010BD002084F83C00204600F00CF802201B
:1014B00084F83D00211D206800F0E0FC012084F844
:1014C0003D00002010BD704710B5044600680122A1
:1014D00000F038FD0B492068884202D00A49884252
:1014E00003D1416C41F4004141642068816801F0FE
:1014F0000701062903D0016841F0010101600020C5
:1015000010BD0000000001400004014010B5044679
:101510000068002200F016FD114841F21112216806
:101520009310814202D00F48814209D1086A1042CB
:1015300006D1086A184203D1486C20F40040486480
:101540002068016A114206D1016A194203D101687B
:1015500021F001010160012084F83D00002010BD50
:10156000000001400004014070B5040004D094F86C
:101570003900002510B106E0012070BD84F8385014
:10158000204600F023F8242084F839002068C16840
:1015900021F40051C160204600F0DAFD20680169A5
:1015A00021F4904101612068416921F02A014161E3
:1015B0002068C16841F40051C160E563202084F8CF
:1015C000390084F83A00002070BD000010B586B0E4
:1015D000044614216846FEF79DFE134920688842A0
:1015E00020D112480021026842F4003202600068F3
:1015F00000F4003005900D481038026842F00102F6
:101600000260006800F0010005900C2000900220AC
:10161000CDE90101032003900720049069460448A6
:10162000FEF7DEFE06B010BD004400404038024028
:10163000000002402DE9F843044690F839001F46A7
:1016400016460D46202850D1B5B1AEB194F83800F9
:1016500001284AD0012084F838004FF00008C4F86F
:101660003C80212084F83900FEF79CFFA684814647
:10167000E68484F8388026E00120BDE8F883E08C19
:10168000401EE084A0684B46B0F5805F4FF000023A
:101690004FF080012046009703D000F0EDFDE8B93F
:1016A0000DE000F0E9FDC8B928882168C0F3080002
:1016B0004860206908B16D1C05E0AD1C03E021689D
:1016C00015F8010B4860E08C0028D8D14B46002269
:1016D00040212046009700F0CFFD08B10320CCE761
:1016E000202084F839000020C7E70220C5E7FEE784
:1016F00010B500F0FBF80022BDE8104010210148B1
:10170000FEF74ABF0000024070B514460D4606467B
:10171000304A15213B2001F038FD2E4B2E49DFEDDC
:101720002F0A188840BA3080588840BA708098884C
:1017300040BAB080188940BA2080588940BA608089
:10174000988940BAA0800C78B3F90E20803C00EE56
:10175000104AB3F91000B3F91230B8EEC01AB7EE60
:10176000000AF0EE401A41EE201A01EE102AB8EEFF
:10177000C11A21EE811AF0EE401ABDEEC11A11EE27
:10178000102A2A804A78803A01EE102AB8EEC11A4F
:1017900041EE201A01EE100AB8EEC11A21EE811AAC
:1017A000BDEEC11A11EE100A68808878803801EE0B
:1017B000100AB8EEC11A01EE200A00EE903AF8EED7
:1017C000E00A20EE200ABDEEC00A10EE100AA88042
:1017D00070BD0000B8000020000000200000803B29
:1017E00010B501216B2001F0B2FE20216A2001F02A
:1017F000AEFE0D21242001F0AAFE00210A2001F0F6
:1018000091FE80216B2001F0A2FE0A20FEF7D6FD9A
:1018100001210B2001F086FE01216B2001F097FED3
:10182000304A0121752001F0B0FC2E4C207871283F
:1018300001D0732827D100216C2001F088FE0021FF
:101840001C2001F084FE00211B2001F080FE0121FC
:101850001D2001F07CFE01211A2001F078FE0021FC
:10186000192001F074FE20216A2001F070FE0D2184
:10187000242001F06CFE1B4A0121002001F06AFCCB
:101880002078482801D0012010BD00210A2001F055
:1018900049FE6420FEF792FD0F210A2001F042FE6E
:1018A0006420FEF78BFD104A0321102001F052FC4A
:1018B00000210A2001F036FE6420FEF77FFD16218C
:1018C0000A2001F02FFE6420FEF778FD01216B2035
:1018D00001F03DFE034A0721032001F03BFC0020FC
:1018E00010BD0000B800002000000020704700007C
:1018F000F8B516460C460546FFF7FAFE44F08000A0
:101900008DF800004FF0FF34234601226946074856
:10191000FFF794FA2346324629460448FFF7E6F9D2
:10192000012210210248FEF737FEF8BDD00000204A
:101930000000024070B514460E460546FFF7D8FE7B
:10194000304600F04BF905E0287800F047F9641EB6
:10195000A4B26D1C002CF7D1BDE87040012210210B
:101960000148FEF719BE00000000024030B587B004
:1019700014216846FEF7CEFC11480024016841F0AE
:1019800001010160016801F001010591016841F068
:101990000801016000680B4D00F008000590224628
:1019A00010212846FEF7F8FD102000900120CDE917
:1019B0000104694628460394FEF712FD07B030BDC6
:1019C00030380240000002400B480A494FF40072D0
:1019D00001604FF48271416000218160C16001614A
:1019E000C0E90512C1610162416281620A21C162DE
:1019F000FFF708B900300140D000002010B58EB0CC
:101A000000240794089409940A940B941C216846B6
:101A10000C94FEF77FFC1D481B4901602821C0E99A
:101A200001144FF4FA51C0E903148461FFF702FC7A
:101A30004FF48050079007A91448FFF72BFC134878
:101A4000FFF726FD0B940BA910480C94FFF7AAFB97
:101A5000602000904FF41670CDE901040022694621
:101A60000A480494FFF7ACFC042269460748FFF7D4
:101A7000A7FC082269460548FFF7A2FC0348FFF7C8
:101A800075FC0EB010BD00000008004028010020C9
:101A9000FEE77047F8B5044640684FF482739842F9
:101AA00021D1A0684FF48065B0F5004F01D0A84265
:101AB0000AD12068066826F04006066060689842F1
:101AC00011D1A068A8420ED000920B4600228021BE
:101AD000204600F039F8002804D0606D40F0200066
:101AE00060650320F8BD00920B4600220121EFE75C
:101AF00038B504461248134B0068B0FBF3F04FF4BE
:101B00007A73584300906068B0F5827F0DD10B4620
:101B1000009200228021204600F016F870B1606D1E
:101B200040F020006065032038BD009830B1401EB1
:101B3000009020688068C0430006F6D5002038BDBC
:101B40005000002000366E012DE9F0411D46174679
:101B50000E460446DDF8188008E0681C06D0FEF743
:101B600021FDA0EB0800A8420BD255B12068806887
:101B700036EA000030D00020B842EED10020BDE8A7
:101B8000F0812068416821F0E00141606068B0F5B3
:101B9000827F0BD1A068B0F5004F02D0B0F5806F06
:101BA00004D12068016821F040010160A06AB0F50D
:101BB000005F09D12068016821F4005101602068AC
:101BC000016841F400510160012084F851000020B7
:101BD00084F850000320D2E70120CDE701B582B0A0
:101BE00000208DF804004FF480500090012301AADA
:101BF00002A90448FFF7D0F908B100200EBD9DF8F6
:101C000004000EBDD00000201E4DAE1DA5F12C0419
:101C10001C4A0C32911F881FFFF776FDB5F90010A2
:101C2000C822206A00F07CFFD0B117A000F058FB5A
:101C3000B5F90210C822606A00F072FFB0B112A0BC
:101C400000F04EFBB6F90010C822A06A00F068FF51
:101C500090B10DA000F044FB606800F0F7FED7E7FC
:101C6000B5F900100CA000F03BFBE1E7B5F902105C
:101C70000BA000F035FBE5E7B6F900100BA000F073
:101C80002FFBE9E730000020202A20436F6C612001
:101C90006C6C656E610A0D00545820253564200077
:101CA00020545920253564200000000020545A207B
:101CB000253564200A0D00000EB5114C114F4FF070
:101CC000FF3632466846616A00F0E0FE0198E1683E
:101CD000884200DD01254A42904200DA35468842BA
:101CE00002DA904200DD00253868401B3860294642
:101CF00005A000F0F5FA606800F0A8FEE1E700003A
:101D00000400002038080040436F646F3A202564C7
:101D1000200A0D000EB50024114D124F661E6FF003
:101D2000180832466846A96A00F0B0FEB5F90010FE
:101D30000198401A192800DD3446404500DA012494
:101D40001830312800D200243868204438602146F9
:101D500005A000F0C5FA686800F078FEE1E7000031
:101D60000400002034080040486F6D62726F3A250D
:101D700064200A0D000000000EB5114C114F4FF009
:101D8000FF3632466846216A00F080FE0198E1681D
:101D9000884200DD01254A42904200DA35468842F9
:101DA00002DA904200DD0025386828443860294670
:101DB00005A000F095FA606800F048FEE1E7000039
:101DC000040000203C0800404D756E6563613A20B8
:101DD0002564200A0D00000010B5FEF7E9FB01F0B4
:101DE00077FF012803D0BDE8104001F035BC10BDDD
:101DF00010B592B030216846FEF78CFA14210CA879
:101E0000FEF788FA14480024016841F0805101600F
:101E1000006800F0805011901048016841F4804142
:101E200001600068069400F4804011900220009048
:101E300001200390102004906846FEF735FD0F2026
:101E4000CDE90C040E940F9400210CA81094FEF719
:101E50003FFC12B010BD000040380240007000404E
:101E60000548016841F47001016003494FF00060CA
:101E7000803908607047000088ED00E0F0B5026826
:101E8000254C264D264E274F274B4FF0804CA04225
:101E900009D0604507D0A84205D0B04203D0B8426F
:101EA00001D0984204D122F0700E4A6842EA0E0234
:101EB000A0421BD0604519D0A84217D0B04215D01F
:101EC000B84213D0984211D0184DA8420ED0184DE8
:101ED000A8420BD0174DA84208D0174DA84205D0F4
:101EE000164DA84202D0164DA84203D122F44075E7
:101EF000CA682A434D6922F080022A4302608A6838
:101F0000C2620A688262A04201D0984201D1096986
:101F1000016301214161F0BD000001400004004067
:101F200000080040000C0040000401400040014057
:101F3000004401400048014000180040001C0040DF
:101F40000020004010B501F01F030121046A9940F0
:101F50008C430462016A9A401143016210BD10B5BE
:101F6000846842EA032224F47F440A4322438260C5
:101F700010BD826822F070020A4342F007018160BE
:101F800070470000F0B5026A22F001020262036AA3
:101F900042688469124E24F073050C682C4323F0C8
:101FA00002058B682B430D4DA84201D0B04205D1EC
:101FB00023F00807CB683B4323F00403A84201D079
:101FC000B04205D14D6922F4407215438A692A4313
:101FD00042608461496841630362F0BD00000140D2
:101FE00000040140F0B5026A22F010020262026AA7
:101FF000436884690D6824F4E64444EA05248D6846
:1020000022F0200242EA05120F4D104EA84201D0E4
:10201000B04206D1CF6822F0800242EA071222F0D5
:102020004002A84201D0B04207D14D6923F4406379
:1020300043EA85038D6943EA850343608461496807
:1020400081630262F0BD0000000001400004014015
:10205000F0B5026A22F480720262026A4368C469BF
:1020600022F4007224F073050C68124E2C438D6824
:1020700042EA05220E4DA84201D0B04206D1CF68F7
:1020800022F4006242EA072222F48062A84201D0D0
:10209000B04207D14D6923F4405343EA05138D69DB
:1020A00043EA05134360C4614968C1630262F0BD3D
:1020B000000001400004014030B5026A22F4805261
:1020C0000262046A4268C3690D6823F4E64343EA86
:1020D00005238D6824F4005444EA0534084DA842D1
:1020E00002D0084DA84204D14D6922F4804242EA50
:1020F00085124260C36149680164046230BD00001A
:10210000000001400004014010B5036A046A24F095
:1021100001040462846924F0F00444EA021423F008
:102120000A020A438461026210BD10B5036A23F0FB
:10213000100303628369046A23F4704343EA0232A2
:1021400024F0A00343EA01118261016210BD000086
:102150002DE9F041044600680169E26821F440512C
:10216000114301612169A068E26908436169114373
:1021700008432168CA6849F20C639A430243CA6063
:1021800020684169A26921F4407111434161E0690D
:10219000192764253226B0F5004F354A35492068A5
:1021A0004FF0000806D0884201D0904236D1FEF7A9
:1021B00039FB35E0884201D0904202D1FEF732FB74
:1021C00001E0FEF71FFB61684A18A0FB070148EB1E
:1021D0000803FEF755F80146B0FBF5F00201B1FB2C
:1021E000F5F06FF01803584301EB800006EBC000D8
:1021F000B0FBF5F000F0F80002EB4002B1FBF5F0A7
:10220000584301EB800006EBC000B0FBF5F000F096
:102210000700216810448860BDE8F081FEF7F2FAFB
:1022200061688B0F8A00A0FB0701FEF729F80146C1
:10223000B0FBF5F06FF01802504301EB800006EBA5
:102240000010B0FBF5F000F0F002B1FBF5F002EB8E
:102250000012B1FBF5F06FF01803584301EB80005A
:1022600006EB0010B0FBF5F000F00F00D1E7000026
:1022700000140140001001402DE9F0419846174636
:102280000E460446069D1DE0681C1BD02DB1FEF7CE
:1022900089F9A0EB0800A84214D92068C16821F48C
:1022A000D071C1602068416921F0010141612020A5
:1022B00084F8390084F83A00002084F838000320BC
:1022C000BDE8F0812068006836EA000004D00020F4
:1022D000B842D9D00020F3E70120F9E7FEE700007B
:1022E0000FB4054B10B503A9044A029800F028F872
:1022F00010BC5DF814FB000085260008B400002027
:102300000907090E002804DB00F1E02080F8001422
:10231000704700F00F0000F1E02080F8141D7047B6
:1023200002E008C8121F08C1002AFAD1704770479E
:10233000002001E001C1121F002AFBD170470000FC
:102340002DE9FF4F8BB088460546002606E025287C
:102350000BD0DDE90D1290476D1C761C2878002803
:10236000F5D10FB03046BDE8F08F0024A146A2465B
:102370000122AE4900E0044315F8013F203B02FA78
:1023800003F00842F7D128782A2810D06FF02F02E6
:102390002878A0F13001092915D809EB890102EB51
:1023A000410144F0020400EB01096D1CF0E758F80C
:1023B000041B5FEA010903D544F40054C9F1000984
:1023C00044F002046D1C28782E2817D115F8010F4F
:1023D00044F004042A280ED06FF02F022878A0F1D0
:1023E000300109290AD80AEB8A0102EB410100EB0E
:1023F000010A6D1CF2E758F804AB6D1C28786C28B4
:102400000FD006DC4C2817D068280DD06A2814D1CC
:1024100004E0742810D07A280FD10DE044F40014A1
:102420000AE044F4801401E044F4401469788142E5
:1024300002D104F580146D1C6D1C2878692865D0C4
:1024400006DC00288DD0632827D0642806D15DE003
:102450006E2808D073282AD0752877D0DDE90D12B0
:102460009047761CE0E0C4F30250022809D003280C
:102470000DD0D8F8001004280DD00E6008F1040823
:10248000D2E0D8F80010F217C1E90062F6E7D8F8F8
:1024900000100E80F2E70E70F0E718F8041B8DF8BC
:1024A000001000208DF80100EB46012003E058F8F1
:1024B00004BB4FF0FF3061074FF0000701D40AE082
:1024C0007F1C57450DDA8742FADB1BF807100029FD
:1024D000F6D106E07F1C8742FCDB1BF807100029C1
:1024E000F8D1DDE90D23A9EB07008146214600F074
:1024F000B1F83044C61904E0DDE90D121BF8010BF8
:1025000090477F1EF8D22146484688E058F8040BD1
:10251000C4F302514FF00A0B032900D100B2042981
:1025200000D140B2002802DA40422D2102E021050C
:1025300005D52B218DF82410012104E006E0E107E8
:1025400010D02021F6E708AF089113E058F8040BEB
:10255000C4F302514FF00A0B032900D180B20429C1
:1025600000D1C0B20021EEE75946FDF7DEFE303162
:1025700007F8011D0028F7D1ADEB070000F1200B93
:10258000600702D524F4803401E04FF0010ADA45F7
:1025900002DDAAEB0B0000E00020824600EB0B01FD
:1025A00008980144A9EB01000A90E00306D4DDE994
:1025B0000D2321460A9800F04DF806444FF000091B
:1025C00008E009A911F80900DDE90D12904709F1A9
:1025D0000109761C08998945F3DBE0030CD5DDE998
:1025E0000D2321460A9800F035F8064404E0DDE9A1
:1025F0000D1230209047761CBAF10001AAF1010AB1
:10260000F5DC05E0DDE90D1217F8010B9047761CAB
:10261000BBF10001ABF1010BF4DC0A982146DDE9C6
:102620000D2300F005F806446D1C97E6092801000B
:102630002DE9F041044600251E461746880404D4BF
:1026400005E039462020B0476D1C641EF9D52846A8
:10265000BDE8F0812DE9F041044600251E46904674
:10266000C80301D5302700E02027880404D505E001
:1026700041463846B0476D1C641EF9D52846BDE872
:10268000F081000013B54FF6FF730122694602483E
:10269000FEF7D0FF00981CBD68010020EFF3058015
:1026A000002800D001207047C8B0FDF789FFFFF770
:1026B0009FFBFFF75BF9FFF787F96E486C49002530
:1026C00001604FF4E131C0E901150C21C560C0E99A
:1026D00004518561C561FEF747FFFFF78FF966A0DA
:1026E000FFF7FEFD74A0FFF7FBFD83A0FFF7F8FDE9
:1026F00091A0FFF7F5FDA0A0FFF7F2FDAEA0FFF758
:10270000EFFDBDA0FFF7ECFDFFF76AF8CA4A911F85
:10271000881FFEF7F9FFC848C74C801F383C008867
:10272000544920803D2240390FA8FDF7DAFD514E73
:10273000403E16F83D0F8DF8790020894FF4FA5786
:1027400080B20C95CDE90D70302213A96846FDF7D3
:10275000C8FD0DF13C0C9CE80F0000F01CFD454944
:102760003D2240390FA8FDF7BCFD30788DF8790087
:1027700020890421CDE90C1780B20E90302213A9D4
:102780006846FDF7AEFD0DF13C0C9CE80F0000F033
:1027900002FD38493D2240390FA8FDF7A2FD3078EF
:1027A0008DF8790020890821CDE90C1780B20E90B0
:1027B000302213A96846FDF794FD0DF13C0C9CE80E
:1027C0000F0000F0E8FC9D4D0DF1EC0C95E80F00BA
:1027D0008CE80F0000213BA800F044F9103520627E
:1027E00095E80F000DF1FC0C103D8CE80F00002166
:1027F0003FA800F037F92035606295E80F000DF52D
:10280000867C8CE80F00002143A800F02BF9A06221
:102810001C2205F110011FA8FDF763FD00211FA870
:1028200000F0ACF920611C2205F12C0126A8FDF76F
:1028300058FD002126A800F0A1F960611C2205F1D5
:1028400048012DA8FDF74DFD00212DA800F096F9B7
:10285000A0611C2205F1640134A8FDF742FD0021AE
:1028600034A800F08BF9E06100F0F7F8FEE7000013
:1028700000440040680100203D3D3D3D3D3D3D3D63
:102880003D3D3D3D3D3D3D3D3D3D3D3D3D3D3D3D78
:102890003D3D3D3D3D3D3D3D3D3D3D3D3D3D3D3D68
:1028A0003D3D3D3D3D3D3D3D3D3D3D3D3D3D3D3D58
:1028B0003D3D20200A0D000020202020204D617386
:1028C00074657220656E20456C65637472F36E6981
:1028D000636120792054656C65636F6D756E696303
:1028E0006163696F6E2041706C696361646173201C
:1028F000202020200A0D0000202020202020202041
:10290000202053697374656D617320456D706F7419
:102910007261646F73206465205469656D706F2007
:102920005265616C202020202020202020202020A3
:10293000202020200A0D0000202020202020202000
:102940002020202020202020202020202020202087
:102950002020202020202020202020202020202077
:102960002020202020202020202020202020202067
:10297000202020200A0D00002020202020202020C0
:1029800020202020202020202050524F5945435401
:102990004F2047494D42414C20202020202020201C
:1029A0002020202020202020202020202020202027
:1029B000202020200A0D0000202020202020202080
:1029C0002020202020202020202020202020202007
:1029D00020202020202020202020202020202020F7
:1029E000202020202020526F792054617261707560
:1029F000657A20200A0D00003D3D3D3D3D3D3D3DB9
:102A00003D3D3D3D3D3D3D3D3D3D3D3D3D3D3D3DF6
:102A10003D3D3D3D3D3D3D3D3D3D3D3D3D3D3D3DE6
:102A20003D3D3D3D3D3D3D3D3D3D3D3D3D3D3D3DD6
:102A30003D3D0A0A0D0000003C000020843F0008D4
:102A400001460020842900D0C81C704710B500B989
:102A5000012000F0AFFC002010BD10B500F0F6FC26
:102A6000002010BD38B5D0E9011204683AB1C3683E
:102A70002BB100200090204600F028FE38BD2046F3
:102A8000BDE83840002200F0FDBD00002DE9FF4107
:102A90000D004FF00006CDE9016507461ED0002469
:102AA0000396501C1FD002B11446FFF7F7FD69468C
:102AB0004FF01008E8B103AA2846091D01F028F8D4
:102AC000012813D000960398E8B114494FF08050C4
:102AD0000860BFF34F8FBFF36F8F14E08020314643
:102AE0002A46009011E04FF0FF34DEE7CDF8008079
:102AF000E9E722462846091D00F06EFF012808D0AC
:102B000054B1402000909DE8070087E80700BDE829
:102B1000FF81CDF80080F6E70020F3E704ED00E048
:102B200037B5054682B000200090140000D1012482
:102B3000FFF7B4FD4FF0000388B16A4603A92846A9
:102B400000F0ECFE012811D1009890B10A494FF035
:102B500080500860BFF34F8FBFF36F8F09E02246AC
:102B600003A9284600F02AFE012802D0FF2005B064
:102B700030BD0020FBE7000004ED00E07FB50D460E
:102B800004464169B0F9080081B1A16971B1FFF74C
:102B900057FFD4E905128DE80700D4E900102B4651
:102BA000226901F06AF8039004B070BDFFF748FF96
:102BB00003A9CDE90001208A2B4682B2D4E9001096
:102BC00001F02EF8012801D00020EDE70398EBE793
:102BD0002DE9F041184C0F46054666692068001D36
:102BE00000F0FAFA38B9206890F82C1001208840DB
:102BF000A1698143A161681C07D137B12168BDE893
:102C0000F0410E48091D00F02BBB20683544B54249
:102C10004560216805D2A068BDE8F041091D00F0BB
:102C200007BB6068091D00F003FB206B854200D2E2
:102C30002563BDE8F081000054000020D804002086
:102C40002DE9F041054600F017FB2E4C2069401C91
:102C5000206120682C4F10B1E06940B32DE0256061
:102C60002069012829D1002606EB860007EB8000A9
:102C700000F0D0FA761C072EF6D323488C3000F0F3
:102C8000C9FA2148A03000F0C5FA1F48B43000F05E
:102C9000C1FA1D48C83000F0BDFA1B48DC3000F016
:102CA000B9FA19488C3060601430A06005E02068E3
:102CB000E96AC06A884200D82560E06A401CE06288
:102CC000E96A0120A26988401043A06101EB8100FC
:102CD00007EB8000291D00F0C3FA00F0EDFAE0696F
:102CE00000280CD02068E96AC06A884207D20749E8
:102CF0004FF080500860BFF34F8FBFF36F8FBDE878
:102D0000F081000054000020FC03002004ED00E0EE
:102D100030B4026C0B46002A0BD0C1681144C1606C
:102D20008468A14201D30168C16030BC1846FDF738
:102D3000D8BA30BC70472DE9F041856B1746044680
:102D40000026026C82B1C7B1E068FDF7CAFAE168FB
:102D5000206C091AE1602268914202D2A168081A27
:102D6000E060022F16D017E02068A8B9A06801F033
:102D700021F806460020A0600EE06068FDF7B1FA79
:102D8000216C606808446060A168884204D32068B0
:102D9000606001E005B16D1E6D1CA5633046BDE8A5
:102DA000F08110B5044690F8510058B101280CD0BC
:102DB00002280FD0502080F31188BFF34F8FBFF34C
:102DC0006F8FFEE7206B00F08BFA2046BDE81040C5
:102DD00000F086BA10BD000010484FF47051420751
:102DE00006D0C01D0D4920F00700411AC1F57051F1
:102DF0000B4A00230144C2E900030839103A21F0CC
:102E0000070111604B600B600B1AC0E9001393605F
:102E10004FF000405360D06070470000EC04002089
:102E2000A0000020144E154CA6F1C8074FF08058A2
:102E3000DFF84C9012E000BF00F01EFAF068C568A1
:102E4000281D00F0C9F92069401E2061E068401E7D
:102E5000E06000F031FA2846FFF7A3FFE0680028A1
:102E6000EAD138680128F9D9C9F80080BFF34F8F3B
:102E7000BFF36F8FF2E70000C4040020540000206D
:102E800004ED00E00346009829B10260C0E90F316B
:102E9000012100F04FBC0060F8E72DE9F0479A46A9
:102EA000DDE9098481466FF00303206B03EB8202A6
:102EB0001044089E20F00707780707D0502080F3C1
:102EC0001188BFF34F8FBFF36F8FFEE7002561B10D
:102ED000002023180A5C83F834200A5C12B1401CDD
:102EE0001028F6D384F8435001E084F83450072EBC
:102EF00000D30626E662C4E91165201D00F095F9AD
:102F000004F1180000F091F92461C6F10700646231
:102F1000A061E56484F8505052464946384600F0B6
:102F200003F92060B8F1000F01D0C8F80040BDE8F7
:102F3000F087000030B5114900E011460A6882426E
:102F4000FBD34B685C18844203D140681844486046
:102F5000084643681C18944209D1084C103C246868
:102F6000A24209D052681A4442600A68126802609C
:102F7000814200D0086030BD0460F9E7A000002065
:102F800010B5044600F078F9A06B28B15FF000049A
:102F900000F092F9204610BD0124F9E70648416887
:102FA000096829B14168C968C968496801637047FF
:102FB0004FF0FF31FAE70000540000200848406855
:102FC000401C4FF0500080F3118804D0BFF34F8FA6
:102FD000BFF36F8FFEE7BFF34F8FBFF36F8FFEE737
:102FE000A80000202DE9F041044600F045F994F9CD
:102FF000455004F1240609E0606A48B1304600F00B
:1030000025FF08B100F004FA6D1E6DB2002DF3DC4F
:103010004FF0FF3684F8456000F04EF900F02CF9CF
:1030200094F9445004F1100709E0206948B138468A
:1030300000F00CFF08B100F0EBF96D1E6DB2002D31
:10304000F3DC84F84460BDE8F04100F035B90000DD
:103050002DE9F0410546002700F02EFA314E306888
:1030600008B9FFF7B9FEF06805424BD1C5B3083582
:1030700068070ED005F00700C0F108000544680796
:1030800007D0502080F31188BFF34F8FBFF36F8FAD
:10309000FEE72DB37068854234D8224810300146CF
:1030A0000C6801E020460C466168A94202D2216802
:1030B0000029F7D131688C4224D00768216801606B
:1030C00060680837411B10290FD96019420708D0E2
:1030D000502080F31188BFF34F8FBFF36F8FFEE74F
:1030E00010E041606560FFF725FF61687068401A75
:1030F0007060B268904200D2B060F0680143002076
:10310000C4E9000100F0DCFE780707D0502080F30E
:103110001188BFF34F8FBFF36F8FFEE73846BDE8CE
:10312000F08100009000002010B5031F4FF0807464
:103130001C601B1F21F001011960191F044B0B605B
:1031400014390A60091F6FF0020244380A6010BD8A
:10315000BD2F000870B50C46054616468C2125206B
:1031600000F0F5F92946262000F0F1F944F080013D
:10317000272000F0ECF90120FDF720F93246214626
:10318000BDE870404920AFF3008013460A4601466F
:103190001846FEF7ADBB0FB470B588B00CA8DDE9DA
:1031A0001C4621461E9DFEF7B1F90CA80F96FEF7AE
:1031B0006FF96020CDE900050020029004902246BE
:1031C00069460CA8FEF7FCF821460CA8FEF77CF92E
:1031D00008B070BC5DF814FBD0E9013201699A6057
:1031E000D0E901235A604A68824201D182684A606C
:1031F000002202610868401E0860086870470000ED
:10320000034B036003F15400086080201060704796
:10321000A801002000F108014FF0FF32C0E90112BF
:10322000C1600161002101607047002101617047A8
:1032300030B50B685A1C02D000F1080202E00269A6
:1032400004E02246546825689D42FAD953684B60D1
:1032500099608A60516008610168491C016030BD55
:1032600042684A6093688B60936859609160086116
:103270000168491C01607047502080F31188BFF33A
:103280004F8FBFF36F8F0A494868401C4860012880
:103290000CD10848006810F0FF0F07D0502080F3D1
:1032A0001188BFF34F8FBFF36F8FFEE770470000A9
:1032B000A800002004ED00E00849486828B1401E3D
:1032C000486001D180F311887047502080F3118845
:1032D000BFF34F8FBFF36F8FFEE70000A800002001
:1032E00070B5002827D0144DA0F108046168E86883
:1032F000014207D1502080F31188BFF34F8FBFF3F5
:103300006F8FFEE722683AB1502080F31188BFF337
:103310004F8FBFF36F8FFEE78143616000F0CCF801
:1033200060686968084468602046FFF703FEBDE8EE
:10333000704000F0C5BD70BD900000204FF0E0204F
:1033400000210161816105494FF47A720968B1FB7E
:10335000F2F1491E416107210161704750000020D0
:1033600010B5FCF777FF114910280ED300F1E020CB
:1033700090F8F0030A78904207D2502080F3118829
:10338000BFF34F8FBFF36F8FFEE70948006889686E
:1033900000F4E060884207D9502080F31188BFF321
:1033A0004F8FBFF36F8FFEE710BD0000A800002015
:1033B0000CED00E010B5020014D00F48806B38B15E
:1033C000502080F31188BFF34F8FBFF36F8FFEE75C
:1033D00000F072F800211046FFF7FAFB00F070FDD4
:1033E000002807D105494FF080500860BFF34F8F88
:1033F000BFF36F8F10BD00005400002004ED00E00B
:1034000002498A6A0260496941607047540000209D
:1034100001490120486270475400002010B50C4655
:1034200050B1094909681831FFF702FF2046BDE88D
:1034300010400121FFF7CCBB502080F31188BFF36F
:103440004F8FBFF36F8FFEE75400002010B586B09A
:103450000024039405AA04A903A80494FFF7D0FE4E
:10346000DDE903010094CDE9011000230EA110480D
:10347000059A00F002FC0F490028486311D0502043
:1034800080F31188BFF34F8FBFF36F8F4FF0FF3082
:1034900008630120C8614C6106B0BDE8104000F02F
:1034A00061B806B010BD000049444C450000000062
:1034B000252E0008540000200248816B491C8163BE
:1034C00070470000540000201448816B11B10121A5
:1034D00041627047002141628169B1FA81F1C1F115
:1034E0001F0101EB81020E4951F822306BB101EB53
:1034F000820101F108034A6852684A609A4201D188
:1035000052684A60D16801607047502080F311888A
:10351000BFF34F8FBFF36F8FFEE700005400002012
:10352000FC03002070B50D4604460C21252000F058
:103530000EF82146262000F00AF82946632000F004
:1035400006F8BDE8704081212720AFF3008013B555
:103550000146012201A8FEF7EDF90A20FCF72EFF33
:103560001CBD00001CB537480168374A914207D19D
:10357000502080F31188BFF34F8FBFF36F8FFEE7AA
:1035800000683149491E884207D1502080F31188D4
:10359000BFF34F8FBFF36F8FFEE72C490878019080
:1035A000FF20087008788DF800009DF800009DF855
:1035B000002000F0F000904207D0502080F31188E6
:1035C000BFF34F8FBFF36F8FFEE79DF80000204BD6
:1035D00000F0500018700720986005E09DF800206A
:1035E00052008DF80020401E9DF800201206F5D4F0
:1035F0009860032807D0502080F31188BFF34F8FC5
:10360000BFF36F8FFEE74FF4407098600198087029
:103610000C482030016841F470010160016841F0FC
:1036200070410160FFF78AFE00205860FCF7DAFD68
:103630000848016841F040410160FCF7BFFD0020EF
:103640001CBD000000ED00E071C20F4100E400E08D
:10365000A800002034EF00E010B5502080F311885E
:10366000BFF34F8FBFF36F8F00F040FB18B10449D9
:103670004FF080500860002080F3118810BD0000DA
:1036800004ED00E0F8B517460E46050014D0DEB193
:1036900005FB06F04830FFF7DBFC04000AD00020F1
:1036A00084F8460004F148023B463146284600941F
:1036B000FFF7E8FB2046F8BD502080F31188BFF3E8
:1036C0004F8FBFF36F8FFEE70020E3E738B5049D0F
:1036D00018B153B1CAB181B120E0502080F31188F4
:1036E000BFF34F8FBFF36F8FFEE7502080F3118839
:1036F000BFF34F8FBFF36F8FFEE7502080F3118829
:10370000BFF34F8FBFF36F8FFEE739B1502080F3C7
:103710001188BFF34F8FBFF36F8FFEE748241C461D
:10372000012384F846302B460094FFF7ABFB20467C
:1037300038BD000070B50D46040025D0FFF79CFD94
:10374000D4E90F20216802FB0011A1600021A163D0
:10375000216861600A46D4E90F01401E00FB012187
:10376000E16021464FF0FF3001F8440F487004F14A
:1037700010008DB1FFF74EFD04F12400FFF74AFD64
:10378000FFF79AFD012070BD502080F31188BFF330
:103790004F8FBFF36F8FFEE721690029F0D000F053
:1037A00055FB0028ECD004494FF080500860BFF36F
:1037B0004F8FBFF36F8FE3E704ED00E02DE9FF4784
:1037C00082B01D468A464FF00008040003D0BAF1CB
:1037D000000F08D011E0502080F31188BFF34F8F05
:1037E000BFF36F8FFEE7206C38B1502080F3118853
:1037F000BFF34F8FBFF36F8FFEE7022D0AD1E06B4F
:10380000012807D0502080F31188BFF34F8FBFF3FA
:103810006F8FFEE700F05CFA3F4F4FF000094FF06A
:10382000805648B9049838B1502080F31188BFF30E
:103830004F8FBFF36F8FFEE7FFF71EFDA06BE16BAD
:10384000884207D3022D05D00498D0B1B8F1000FFB
:103850001AD01EE02A4651462046FFF76CFA616AEC
:1038600019B104F1240000F0F1FA20B13E60BFF379
:103870004F8FBFF36F8FFFF71FFD012006B0BDE82C
:10388000F087FFF719FD22E06846FFF7B9FD4FF01A
:103890000108FFF711FDFFF70FFEFFF7EDFC94F9AC
:1038A0004400401C01D184F8449094F94500401C28
:1038B00001D184F84590FFF7FFFC04A9684600F0A9
:1038C00075F930B12046FFF78DFB00F0F9FA0020C2
:1038D000D4E7FFF7D1FCA06BE16B884213D1FFF76F
:1038E000EBFC04F110000499FFF798FD2046FFF768
:1038F00079FB00F0E5FA00289ED13E60BFF34F8FC0
:10390000BFF36F8F98E7FFF7D7FC2046FFF76AFBFE
:1039100000F0D6FA90E7000004ED00E02DE9F04752
:103920001F4690468946040003D0B9F1000F08D025
:1039300011E0502080F31188BFF34F8FBFF36F8FDA
:10394000FEE7206C38B1502080F31188BFF34F8F11
:10395000BFF36F8FFEE7022F0AD1E06B012807D07B
:10396000502080F31188BFF34F8FBFF36F8FFEE7B6
:10397000FFF7F6FC5020EFF3118680F31188BFF3B8
:103980004F8FBFF36F8FA06BE16B884206D3022F7E
:1039900004D0002086F31188BDE8F08794F94550E3
:1039A0003A4649462046FFF7C6F9681C04D06D1C0C
:1039B00084F845500120EDE7606A0028FAD004F150
:1039C000240000F043FA0028F4D0B8F1000FF1D041
:1039D0000121C8F80010EDE72DE9F747002683B074
:1039E0008A46040003D0BAF1000F08D011E050203D
:1039F00080F31188BFF34F8FBFF36F8FFEE7206C0A
:103A000038B1502080F31188BFF34F8FBFF36F8F11
:103A1000FEE700F05DF9DFF8F4804FF000094FF0A9
:103A2000805748B9059838B1502080F31188BFF30A
:103A30004F8FBFF36F8FFEE7FFF71EFCA56BC5B17D
:103A400051462046FFF764F96D1EA563206950B109
:103A500004F1100000F0FAF928B1C8F80070BFF3C3
:103A60004F8FBFF36F8FFFF727FC012006B0BDE833
:103A7000F087059808B11EB106E0FFF71DFC27E0AE
:103A80006846FFF7BDFC0126FFF716FCFFF714FDA3
:103A9000FFF7F2FB94F94400401C01D184F84490F4
:103AA00094F94500401C01D184F84590FFF704FCCF
:103AB00005A9684600F07AF8002820460AD0FFF7EA
:103AC00091FA00F0FDF92046FFF75AFA0028B3D02A
:103AD0000020CBE7FFF754FA90B104F124000599D8
:103AE000FFF79CFC2046FFF77DFA00F0E9F900287B
:103AF000A2D1C8F80070BFF34F8FBFF36F8F9BE761
:103B00002046FFF76FFA00F0DBF995E704ED00E0DF
:103B10002DE9F04790468946040003D0B9F1000F23
:103B200008D011E0502080F31188BFF34F8FBFF30E
:103B30006F8FFEE7206C38B1502080F31188BFF3FF
:103B40004F8FBFF36F8FFEE7FFF70AFC5020EFF3B4
:103B5000118680F31188BFF34F8FBFF36F8FA76B70
:103B6000F7B194F9445049462046FFF7D1F87F1E3B
:103B7000A763681C04D06D1C84F84450012010E039
:103B800020690028FAD004F1100000F05FF9002845
:103B9000F4D0B8F1000FF1D00121C8F80010EDE722
:103BA000002086F31188BDE8F08700002DE9F04180
:103BB0000C46050011D0C4B1FFF75EFB174B5A69E4
:103BC0006E682068911B471C17D02F689B6A9F4224
:103BD00019D0964217D8012410E0502080F31188A4
:103BE000BFF34F8FBFF36F8FFEE7502080F3118834
:103BF000BFF34F8FBFF36F8FFEE70024FFF75CFB2F
:103C00002046BDE8F081884205D9401A2060284648
:103C1000FFF7F6FBF1E700202060DCE7540000200E
:103C20002DE9FF5F8346DDE90E87994616468A46F1
:103C30009000FFF70DFA05001CD05420FFF708FA9A
:103C4000040014D00020256384F85100CDE902401F
:103C5000CDE900874B46324651465846FFF71DF9DD
:103C60002046FEF7EDFF012004B0BDE8F09F284696
:103C7000FFF736FB4FF0FF30F6E7F0B585B0DDE932
:103C80000B640A9DA6B1DCB1542700972663022677
:103C900084F85160002604AFCDE90246CDE9005713
:103CA000FFF7FBF82046FEF7CBFF049805B0F0BD08
:103CB000502080F31188BFF34F8FBFF36F8FFEE763
:103CC000502080F31188BFF34F8FBFF36F8FFEE753
:103CD0000548C16919B1806B18B1002070470120F7
:103CE0007047022070470000540000202DE9F04189
:103CF0002E4C0027A06B40B1206A401C2062606AF5
:103D000000B101273846BDE8F0816669761C66611E
:103D100013D16068006838B1502080F31188BFF378
:103D20004F8FBFF36F8FFEE76068A1686160A0608E
:103D3000A06A401CA062FFF731F9206BDFF87080A9
:103D4000864209D36068006880B16068C068C56851
:103D5000686886420DD220632068C06A00EB80014B
:103D600058F821000128CAD90127C8E74FF0FF30D1
:103D7000F1E7281DFFF730FAA86A18B105F118001D
:103D8000FFF72AFAE86A0121A26981401143A16183
:103D900000EB800108EB8100291DFFF761FAE86A5A
:103DA0002168C96A8842CDD30127CBE7540000209F
:103DB000FC03002070B504004FF0000140D0214DFD
:103DC0002868844207D0502080F31188BFF34F8FBA
:103DD000BFF36F8FFEE7A06C38B1401EA064636C28
:103DE000E26A9A422CD040B12AE0502080F3118838
:103DF000BFF34F8FBFF36F8FFEE7201DFFF7ECF986
:103E0000114A012150B9E06A00EB800352F82330D7
:103E100023B9AB6901FA00F08343AB61606CE062E7
:103E2000C0F10700A061E06AAB6981401943A96154
:103E300000EB800002EB8000211DFFF711FA012149
:103E4000084670BD54000020FC0300202DE9F0411D
:103E5000C068C468ACB104F118000746FFF7BCF9AC
:103E6000154DA86B0126A0B139461448FFF7F8F9A3
:103E7000E06A2968C96A88421CD901206E62BDE8DF
:103E8000F081502080F31188BFF34F8FBFF36F8F05
:103E9000FEE7201DFFF7A0F9E16AAA6906FA01F022
:103EA0001043A86101EB81000449B43901EB8000A3
:103EB000211DDBE70020E2E754000020B0040020D1
:103EC0002DE9F0472C4D00242746A86B38B1FFF7A9
:103ED000D3F9A86B401EA863A86B40B146E0502000
:103EE00080F31188BFF34F8FBFF36F8FFEE729690F
:103EF000224E0120D1B3A6F1B40980463068E8B162
:103F0000F068C46804F11800FFF766F9201DFFF798
:103F100063F9E06AAA6908FA00F11143A96100EBAC
:103F2000800109EB8100211DFFF79AF9E06A2968F9
:103F3000C96A8842E2D3C5F82480DFE70CB1FFF7F5
:103F40002DF82C6A44B14646FFF7D0FE00B16E62F0
:103F5000641EF9D100202862686A38B10849012737
:103F600038070860BFF34F8FBFF36F8FFFF7A4F9D7
:103F70003846BDE8F087000054000020B00400205F
:103F800004ED00E01000000004000000000000004C
:103F9000000000001000000004000000000000000D
:103FA00000000000100000000400000000000000FD
:103FB0000000000044400008091C00080000000048
:103FC0000000000080000000000000000000000071
:103FD00054400008151D0008FDFF0000000000000F
:103FE0008000000000000000000000004C400008BD
:103FF000B91C0008FDFF0000000000008000000068
:1040000000000000000000003C400008791D00088E
:10401000FDFF000000000000800000000000000024
:104020000000000000000000000000000102030486
:104030000607080900000000010203044D756E65C3
:10404000636100004361707475726100436F646F57
:1040500000000000486F6D62726F00007C40000835
:1040600000000020B80000002023000834410008B0
:10407000B800002038440000302300080000000091
:10408000000000000A00000058020000900100003B
:104090000000000000000000000000000000000020
:1040A0000000000000000000000000000000000010
:1040B0000000000000000000000000000000000000
:1040C0000100000010000000000000000024F400C7
:1040D00000000000000000000000000000000000E0
:1040E00000000000000000000000000000000000D0
:1040F00000000000000000000000000000000000C0
:1041000000000000000000000000000000000000AF
:10411000000000000000000000000000000000009F
:104120000000000000000000AAAAAAAA00000000E7
:04413000000000008B
:040000050800018965
:00000001FF
